:020000040800F2
:1000000030080020C50100083D0E0008350E00082C
:10001000390E0008790D00080510000800000000E6
:100020000000000000000000000000006B0E00084F
:100030007D0D000800000000690E00086D0E00082C
:10004000DF010008DF010008DF010008DF01000810
:10005000DF010008DF010008DF010008DF01000800
:10006000DF010008DF010008DF010008DF010008F0
:10007000DF010008DF010008DF010008DF010008E0
:10008000DF010008DF010008DF010008DF010008D0
:10009000DF010008DF010008DF010008D10D0008C2
:1000A000DF010008DF010008DF010008DF010008B0
:1000B000DF010008DF010008DF010008DF010008A0
:1000C000DF010008DF010008DF010008DF01000890
:1000D000DF010008690F0008DF010008B10F000808
:1000E000810D0008DF010008DF010008DF010008C2
:1000F000DF010008DF010008DF010008DF01000860
:10010000DF010008DF010008DF010008DF0100084F
:10011000DF010008DF010008490F0008DF010008C7
:10012000DF010008DF010008DF010008DF0100082F
:10013000DF010008DF010008DF010008DF0100081F
:10014000DF010008DF010008DF010008DF0100080F
:10015000DF010008DF010008DF010008DF010008FF
:10016000DF010008DF010008DF010008DF010008EF
:10017000DF010008DF010008DF01000800000000C7
:10018000DF010008DF010008DF010008DF010008CF
:10019000DF010008DF010008DF01000800000000A7
:1001A000DF010008DF010008DF010008DFF810D0E0
:1001B00000F0EEFB0048004705260008AFF3008082
:1001C000300800200648804706480047FEE7FEE763
:1001D000FEE7FEE7FEE7FEE7FEE7FEE7FEE7FEE7F7
:1001E000750E0008AD010008D2B201E000F8012B45
:1001F000491EFBD270470022F6E710B513460A46A7
:1002000004461946FFF7F0FF204610BD10B5002246
:1002100000E0521C835C8C5CA34201D1002BF8D11E
:10022000D8B2E1B2401A10BD034611F8012B00F814
:10023000012B002AF9D118467047000070B50F4D08
:1002400000B92868002412E00A4602E09E4203D06A
:10025000521C1378002BF9D1DAB2224305D02BB10E
:1002600024B1002100F8011B04E00446401C06787C
:10027000002EE9D12860204670BD00002C0000202F
:100280000FB400B58DB010A909900B9000914FF0FC
:10029000FF300A9000200C90054806900548079012
:1002A0006A4609A80F9900F0A1F90DB05DF814FB9A
:1002B00009060008270600082DE9FF5F1D464FF0DC
:1002C000FF3BD5E9014691465F464FF00008A9691A
:1002D0007F1C01988847296A824688470028F6D102
:1002E000BAF1FF3F0CD024F4C064002E19DD600683
:1002F00014D5BAF12B0F09D0BAF12D0F0ED103E0AE
:10030000584604B0BDE8F09F44F48064A9697F1C9E
:1003100001988847761E8246002E02DDBAF1300F22
:1003200003D0B9F1000F26D032E0A969761E44F45B
:1003300000747F1C019888478246002E05DDBAF1C3
:10034000780F06D0BAF1580F03D0B9F1000F10D0D2
:100350001EE0B9F1000F02D0B9F1100F18D1A96950
:10036000761E24F400747F1C019888478246102072
:1003700002E0082000E00A20814609E008FB0908A5
:10038000A969761E44F400747F1C01988847824650
:10039000002E05DD4946504600F013F90028EDDA3D
:1003A000E96901988847A00502D46FF00100A8E729
:1003B000E00725D1600613D5600502D5C8F100001D
:1003C00000E0404629680A1D2A600968220501D517
:1003D000087015E0220701D5088011E008600FE0E1
:1003E0002868011D29600068210502D580F8008079
:1003F00006E0210702D5A0F8008001E0C0F80080E7
:1004000038467EE72DE9FE4F81EA030404F00044FC
:1004100021F0004100944FF0000B23F0004350EA1C
:1004200001045ED052EA03045BD0C3F30A54C1F363
:100430000A552C44A4F2F3340194A0FB0254C1F3F6
:10044000130141F48011C3F3130343F4801301FB40
:10045000024400FB034E840A970A44EA815447EAA7
:100460008357A4FB076802958D0A05FB07854FEAB1
:10047000932C04FB0C542705029D4FEA065847EACB
:100480001637B5EB08056EEB070C870E920E47EAA0
:10049000811742EA8312A7FB0201B6EB0B0164EB62
:1004A00000042B0D43EA0C335E1844EB1C50DA4673
:1004B0005146E7FB0201C5F313044FEA0B3343EA4D
:1004C00014534FEA0432019C43EA0603A4F10C04DE
:1004D0000294009CCDE900B400F0C5F803B0BDE87B
:1004E000F08F00200146F9E70EB540F2334102914A
:1004F0000021CDE900110A460B4600F0B4F803B024
:1005000000BD000030B5041E71F1000404DB4FF0A3
:100510000044404264EB0101141E73F1000405DB4A
:100520001C464FF00043524263EB04038B4208BF6A
:10053000824230BD30B50B46014600202022012406
:1005400009E021FA02F59D4205D303FA02F5491BA1
:1005500004FA02F52844151EA2F10102F1DC30BDB7
:100560002DE9F05F0546002092469B4688460646E8
:10057000814640241BE0284641464746224600F07B
:1005800028FA53465A46C01A914110D311461846CC
:10059000224600F00FFA2D1A67EB01084F4622465B
:1005A0000120002100F006FA17EB00094E41201E41
:1005B000A4F10104DFDC484631462A464346BDE843
:1005C000F09F3A2800D2303820F02002412A01D38F
:1005D000A2F13700884201D34FF0FF30704700008E
:1005E000026811441378016018467047D1600449CD
:1005F00051610449116200211161114600F010BAE5
:10060000E1050008170A0008426842B1016811F8C4
:10061000013B23B1521EC0E9001218467047012168
:10062000C160881E704742685AB1C368016843B907
:1006300083688B4205D0491E521CC0E9001200207D
:1006400070474FF0FF30704710B5141E73F100046F
:1006500008DA401C41F1000192185B411A4301D1B4
:1006600020F0010010BD2DE9F04D92469B4611B1DE
:10067000B1FA81F202E0B0FA80F22032904600F046
:1006800099F904460F4640EA0A0041EA0B01534635
:100690005A46084313D0114653EA010019D0C8F155
:1006A0004002504600F095F905460E465046594620
:1006B000424600F07FF9084305D0012004E02046BF
:1006C0003946BDE8F08D0020054346EAE0762C432C
:1006D00037430A986305E40AA0EB08000022FD0AEC
:1006E00044EA47540A3002D500200146E9E70105F3
:1006F00010196941DDE9084500196941BDE8F04D6F
:10070000A2E72DE9FE4F804681EA0300C00F0C46A8
:10071000009021F0004123F00045B8EB0200A94110
:1007200005D24046214690461C460B46024623F021
:100730000040104347D0270DC7F30A00C3F30A5106
:100740000290401A019040286BDAC3F3130040F482
:10075000801B0098924620B10023D2EB030A63EB82
:100760000B0B01985946C0F14002504600F022F9A7
:1007700006460D4650465946019A00F03AF910EBEC
:1007800008006141002487EA115284EAE7731A43A2
:1007900040D0009A62B3019A012A4FEA075215DC51
:1007A000001B61EB02014FF0004202EA0752CDE963
:1007B0000042001C41F5801132462B46FFF753FFE3
:1007C00003B0BDE8F08F40462146F9E7001B61EB1E
:1007D0000201001C41F5801300185B412018A2F5AE
:1007E000001747EB030140EAD570B6196D4111E0DF
:1007F0006D084FEA360645EAC0754FEA0752001BFE
:1008000061EB0201001C41F5801149084FEA3000FC
:100810000019514132462B4603B0BDE8F04FFFF7B7
:1008200013BF0098012240000023D0EB020263EBCB
:10083000E073009821464FEAE074B8EB000061EBEA
:100840000401E9E783F000435BE781F0004158E7EA
:100850002DE9F04D81EA030404F0004B21F000453E
:1008600014464FF0000A23F0004150EA050220D060
:1008700054EA01021DD0C5F30A570246C5F313031B
:10088000C1F31300C1F30A5640F4801543F48013FA
:10089000A7EB0608101BD64608F2FD3873EB0500DF
:1008A00002D308F1010801E092185B41B8F1000F92
:1008B00003DA00200146BDE8F08D00204FF48011DE
:1008C000064684460EE0171B73EB050705D3121B83
:1008D00063EB050306434CEA010C49084FEA30007C
:1008E00092185B4150EA0107EDD152EA030012D0A1
:1008F00082EA040083EA0501084305D0101BAB41DE
:1009000006D20122002306E000224FF0004302E05D
:100910006FF0010253101AEB06004CEB085110EB7C
:100920000A0041EB0B01BDE8F04DFFF78DBEC1F3AE
:100930000A52C1F3130140F2FF3341F480119A428D
:1009400002DA00200146704740F233439A42A2F295
:10095000334202DC524200F03CB800F02BB80000F9
:1009600030B5041E71F1000404DB4FF00044404236
:1009700064EB0101141E73F1000405DB1C464FF00B
:100980000043524263EB0403994208BF904230BDDA
:10099000064C074D06E0E06840F0010394E80700CC
:1009A00098471034AC42F6D3FFF704FC003400083B
:1009B00020340008202A04DB203A00FA02F100204B
:1009C00070479140C2F1200320FA03F3194390408D
:1009D0007047202A04DB203A21FA02F000217047F8
:1009E00021FA02F3D040C2F1200291400843194697
:1009F0007047202A06DBCB17203A41FA02F043EA7F
:100A0000E07306E041FA02F3D040C2F120029140C7
:100A1000084319467047C0B24FF4F05100F098B93E
:100A20002DE9F34F8BB04FF0000801F10C000C469C
:100A30004FF0010B46460DF1080A01906269012151
:100A400001989047051E2DD0252D2CD0216A88476E
:100A5000C0B16269012101989047216A8847002846
:100A6000F7D1411E62690198904700E0761CA169A8
:100A70000B988847216A88470028F7D1E1690B98CD
:100A80008847DBE7A1690B9888470746A84201D150
:100A9000761CD3E7E1690B9888477F1C02D1B8F137
:100AA000000F6FD047E1002762693D463946019843
:100AB00090472A2804D162690121019890470125B5
:100AC000DFF888926269012101989047A0F1300116
:100AD0000A290AD24F45E5DC07EB870100EB410705
:100AE000303FDFD445F01005ECE7E90601D46FF0A4
:100AF00000476C280AD04C2814D0682815D06A28E2
:100B00000DD074281CD07A281AD01DE0626901210A
:100B1000019890476C2802D045F0040514E045F098
:100B200002050DE045F020050AE062690121019807
:100B30009047682802D045F0080505E045F40065B7
:100B40006269012101989047C4E9015765283DD0A9
:100B500019DC58287AD00CDC452837D004DC25284D
:100B600026D0412831D131E046282FD047282CD13A
:100B70002CE05B2877D0612828D063287CD06428BB
:100B800023D15AE0D1E06F2848D008DC66281DD078
:100B900067281BD0692821D06E2816D127E070283D
:100BA00045D0732868D0752847D078280DD14DE0FE
:100BB000A1690B988847054625283FF469AFE1698C
:100BC0000B9888476D1C3FF46AAFB4E023466A4631
:100BD0006FF001000B99AFF300809FE045F04000FB
:100BE0006060A80723464FF0000236D43EE0E807D5
:100BF0007FF447AF2068011D21600068290501D5F9
:100C000006701BE7290701D5068017E7A90703D55A
:100C1000F117C0E9006111E706600FE745F04000F9
:100C20006060A80723464FF0080216D41EE040F685
:100C30000E0125EA0100606016E045F040006060AA
:100C4000A80723464FF00A0207D40FE045F0400002
:100C50006060A80708D5234610226FF001000B99A9
:100C6000AFF300805AE007E0234610226FF0010046
:100C70000B99FFF721FB51E04FF000094F464B461F
:100C8000632802D05B2807D041E02079C00601D458
:100C90000120A06001273AE0626901210198904794
:100CA0005E2805D14FF001096269494601989047D5
:100CB000216939B900210A46534643F82120491CCD
:100CC0000829FADBB0B3216969B9C11700EBD16219
:100CD00053110AEB830122F01F02821A01200B68D4
:100CE000904003430B6062690121019890475D28A1
:100CF000E8D1B9F1000F09D00020514651F8202069
:100D0000D24341F82020401C0828F7DB02AB2246E2
:100D100000976FF001000B99AFF3008000280CDA08
:100D2000401C08D1BBF1000F05D04FF0FF300DB0D3
:100D3000BDE8F08FFFE74046F9E7E90701D108F188
:100D4000010806444FF0000B78E60000CCCCCC0C38
:100D50007F2801D9002208E0064A02EB5002C007B2
:100D6000127800D1120902F00F02012090400840D1
:100D700070470000C033000800BFFEE77047000066
:100D800010B54FF4005001F049FB012809D141038F
:100D90000C4801F09CFB0C4908704FF4005001F026
:100DA00037FB4FF4006001F039FB012809D1C10283
:100DB000044801F08CFB054908704FF4006001F015
:100DC00027FB10BD000402400B0000200C00002097
:100DD00010B5802001F022FB01280ED180210F48A0
:100DE00001F075FB0E49087080210E4801F06FFB81
:100DF0000D490870802001F00BFB4FF4807001F06A
:100E00000DFB012809D1C103084801F060FB084926
:100E100008704FF4807001F0FBFA10BD000802402A
:100E200008000020001802400900002000040240D1
:100E30000A00002000BFFEE700BFFEE77047000089
:100E400010B5002807DA0A07140E054A00F00F0350
:100E50001B1FD45403E00A07130E024A135410BD9B
:100E600018ED00E000E400E07047704710B501F0B5
:100E700077F910BD08B53048006840F470002E497D
:100E800008602E48006840F001002C49086000BF4F
:100E90002A48006800F002000028F9D000BF274867
:100EA0000830006840F080002449083108600020C4
:100EB000009002E00098401C009000985028F9D360
:100EC0001E480830006840F090001C490831086056
:100ED0000020009002E00098401C009000985028EC
:100EE000F9D300BF15480830006820F0030013490B
:100EF0000831086011480068114908400F4908602E
:100F00000846006820F48020086000200B49083162
:100F1000086000BF09480830006800200028F9D1A7
:100F200008480649091D0860002004490C31086082
:100F300001F048FD08BD000088ED00E000380240E7
:100F4000FFFFF6FE1030002410B50121054802F025
:100F50001AF9012805D101F067F80121014802F0D2
:100F60000FF910BD0010004000B589B00A4801908B
:100F700002900A48039080200490094805900220BE
:100F80008DF818000748079007A00890002101A8D5
:100F900000F048FE09B000BD001001403400002000
:100FA0000064024034010020555341525430000087
:100FB00000B589B00B4801900B4802900B48039094
:100FC000802004900A48059001208DF818000948F7
:100FD000079009A008900A48016801A800F022FEC5
:100FE00009B000BD0048004000100140B4000020DE
:100FF00000600240700100205553415254320000FD
:101000000400002000BFFEE70FB4054B10B503A994
:10101000044A029800F0DAF810BC5DF814FB0000F6
:10102000352400083000002002E008C8121F08C163
:10103000002AFAD170477047002001E001C1121F59
:10104000002AFBD1704700002DE9FF5F82B000212C
:10105000DDE90430020DDDF840B0034318D044F65A
:101060001050A2F2FF3242431514119801281FD0EC
:10107000A5EB0B00401C5FEA000A4FF000064E4F44
:10108000DFF83891B046504615D5CAF1000413E098
:10109000119801244AA3012801D16FEA0B0102989B
:1010A000119AC0E90031C0E9024206B0BDE8F09FE4
:1010B000CBF10000DFE704460021404A491842EB2B
:1010C0000450CDE9001012E0E00707D032463B465D
:1010D00040464946FFF796F98046894632463B46E8
:1010E00010461946FFF78EF906460F466410002C8D
:1010F000EAD1DDE90401DDE90023BAF1000F06DAE7
:10110000FFF780F942464B46FFF77CF905E0FFF711
:101110009FFB42464B46FFF79BFB04460E460022D0
:10112000284BFFF71DFC03D84FF0FF30014607E0C6
:101130000022254B20463146FFF7E3FAFFF7F7FB85
:10114000102409E0002C0ADB0A220023FFF708FA2A
:10115000039B30321A55641E50EA0102F2D1641C1E
:10116000039AC4F111031444119A012A03D00122F5
:1011700008430DD10AE0084304D000204FF0110BC2
:10118000119072E7A3EB0B056D1E0DE05B4504DDCE
:101190004FF0000205F1010504E003DA4FF0000210
:1011A000A5F10105002AECD002981199C0E902319D
:1011B000C0E9004579E70000000014400000F03F5E
:1011C000300000000000F0430000E03F2DE9FF4F39
:1011D00095B09A46884606460025EEE1252877D147
:1011E00000242746F94A0121039400E0044316F83D
:1011F000013F203B01FA03F01042F7D130782A2852
:1012000011D06FF02F033078A0F13002092A16D8E0
:10121000039A44F0020402EB820203EB4202104400
:10122000761C0390EFE758F8042B0392002A03DAA8
:10123000504244F40054039044F00204761C307889
:101240002E2816D116F8010F44F004042A280DD0D8
:101250006FF02F023078A0F13003092B09D807EB8B
:10126000870302EB4303C718761CF3E758F8047BA7
:10127000761C30786C280FD006DC4C2817D06828F4
:101280000DD06A2814D104E0742810D07A280FD128
:101290000DE044F400140AE044F4801401E044F446
:1012A00040147278824202D104F58014761C761CB8
:1012B000307866280BD013DC582877D009DC00285A
:1012C00075D04528F6D04628F4D047281AD193E1A6
:1012D00018E0632835D0642879D0652812D18BE1D5
:1012E000702873D008DC6728F1D069286FD06E2889
:1012F0000DD06F2806D1ACE073282CD0752874D09F
:10130000782853D05246179990476D1C54E1C4F386
:101310000250022809D003280DD0D8F80010042864
:101320000DD00D6008F1040846E1D8F80010EA1766
:10133000C1E90052F6E7D8F800100D80F2E70D7011
:10134000F0E718F8041B8DF8001000208DF801005C
:10135000EB46012003E058F804BB4FF0FF30610773
:101360004FF0000102D40DE009F101018946B942B4
:101370000FDA8145F8DB1BF809100029F4D108E0E9
:1013800009F1010189468142FADB1BF809100029A5
:10139000F6D103985346A0EB090721463846179A21
:1013A00000F080FA284400EB090507E044E008E17A
:1013B0000DE01BF8010B524617999047B9F101094E
:1013C000F7D2534621463846179AF2E039E00A210F
:1013D000C4F302524FF0000B0091022A06D058F8D5
:1013E000040BC117032A09D00AE023E008F1070023
:1013F00020F00702F2E80201904605E000B2C117B2
:10140000042A01D140B2C117002906DA0A46002198
:10141000404261EB02012D2202E0220504D52B227D
:101420008DF80420012203E0E20701D02022F7E733
:10143000914657E00A2100E010214FF0000B009187
:101440000BE010214FF0000B44F00404082700913A
:1014500003E008204FF0000B0090C4F30252022A70
:1014600005D058F8040B0021032A08D008E008F141
:10147000070020F00702F2E80201904603E080B284
:10148000042A00D1C0B24FF0000922072AD53278D1
:10149000702A07D0DDF800C08CF0100C5CEA0B0C51
:1014A00005D00EE040228DF80420012208E050EA29
:1014B000010306D030238DF804308DF80520022278
:1014C0009146009B83F0080353EA0B030AD150EACC
:1014D000010201D1620705D530228DF804204FF0BA
:1014E00001097F1E3278582A04D039A20C920CAA26
:1014F00002920BE03BA2F9E75B46009AFFF730F857
:101500000C9B9B5C029A521E0292137050EA0102DD
:10151000F2D1029804A9081A00F1200B600702D545
:1015200024F4803400E001275F4502DDA7EB0B00C7
:1015300000E0002000EB0B01009003984944401AA2
:101540000390E00306D453462146179A039800F00F
:10155000A9F90544002706E001A85246C05D179985
:1015600090476D1C7F1C4F45F6DBE0030CD55346BE
:101570002146179A039800F095F9054404E03020BD
:101580005246179990476D1C0099481E00900029FB
:10159000F5DC08E00298029952460078491C029155
:1015A000179990476D1CBBF10001ABF1010BF1DC09
:1015B0005BE100F065F90544761C307800287FF483
:1015C0000DAE19B02846BDE8F08F000009280100D3
:1015D00030313233343536373839616263646566A9
:1015E000000000003031323334353637383941426B
:1015F0004344454600000000600700D4062708F178
:10160000070020F00700F0E80223804603F0004CBA
:101610005FEA0C0001D097A009E0200501D596A053
:1016200005E0E00701D095A001E0AFF24C00139077
:10163000307823F0004365280CD006DC452809D01B
:1016400046281DD047287FD13BE0662818D0672860
:101650007AD136E00021112F01DB112000E0781C47
:10166000CDE9000104A90CA8FFF7EEFCDDE90D01AE
:101670000C9A4FF0000B07F10109109200914EE017
:101680004FF000400097CDE9011004A90CA8FFF726
:10169000DBFCDDE90D020C9B0F994FF0000B91462E
:1016A0001093009211B9791C00EB0109B7EB090006
:1016B00003D4C0F1FF3B07F10109A9EB070001903A
:1016C00042E0012F00DA01270021112F01DD112056
:1016D00000E03846CDE9000104A90CA8FFF7B4FCEE
:1016E000DDE90D010C9A00914FF0000BB946109204
:1016F00021070FD4009A4A4503DA914601E0A9F187
:101700000109B9F1010F05DD109AA9F10101515C40
:101710003029F4D0B84202DA10F1040F03DA0121C3
:10172000CDE9011010E0002803DC8344A9EB00019F
:1017300002E0411C494500DD8946A0EB0B00401C3E
:1017400001904FF000400290200705D401984845D1
:1017500002DB4FF0FF30019000208DF84B00029823
:101760000DF14B07B0F1004F25D002200C902B203B
:101770000D90029800280CDA404202902D200D9026
:1017800007E00A210298FEF7D5FE3031029007F8F3
:10179000011D0C99481E0C900029F2DC02980028CB
:1017A000EFD1791E0D980870307800F0200040F0DD
:1017B000450007F8020D11A8C01BC01D0290139828
:1017C000007800B1012000EB0901019801EBE07104
:1017D000029801440398401A401E0390E00306D487
:1017E00053462146179A039800F05CF80544139875
:1017F000007818B15246179990476D1CE00323D525
:1018000053462146179A039800F04CF805441BE014
:10181000BBF1000F07DB0098584504DD10981799BD
:1018200010F80B0001E017993020524690470198BC
:101830000BF1010B401E05F10105019004D12E2092
:101840005246179990476D1CB9F10001A9F10109A1
:10185000DEDC05E017F8010B5246179990476D1C26
:101860000299481E02900029F4DC53462146179A3B
:1018700003989EE62D0000002B00000020000000D1
:101880002DE9F041044600251E461746880404D47D
:1018900005E039462020B0476D1C641EF9D5284666
:1018A000BDE8F0812DE9F041044600251E46904632
:1018B000C80301D5302700E02027880404D505E0BF
:1018C00041463846B0476D1C641EF9D52846BDE830
:1018D000F081000010B5024800F0BEFB10BD000012
:1018E0002519000870B505460CA12846FEF7A6FC90
:1018F000064631460A48FEF797FC01240BE007A193
:101900000020FEF79BFC0646054901EB841031469A
:10191000FEF78AFC641C0A2CF1D370BD2000000085
:10192000AC01002038B504462046FFF7DBFF6A46CD
:1019300029A12A48FEF7A4FC29A128484038FEF72F
:1019400065FC08B900F0E4FB28A124484038FEF704
:101950005DFC18B90099C8B200F0A5FB26A11F488C
:101960004038FEF753FC18B90099C8B200F07AFB72
:1019700025A11A484038FEF749FC18B90099C8B2A9
:1019800000F0ACFB23A115484038FEF73FFC18B926
:101990000099C8B200F0AFFB21A110484038FEF713
:1019A00035FC08B900F06BFB20A10C484038FEF76D
:1019B0002DFC80B91FA10948FEF728FC18B90120A9
:1019C00001F0D4F907E01CA10448FEF71FFC10B990
:1019D000002001F0CBF938BD25640000EC010020A7
:1019E0006361725F73746F70000000006361725F07
:1019F000666F7277617264006361725F6261636BCC
:101A000077617264000000006361725F6C656674E8
:101A1000000000006361725F726967687400000013
:101A20006361725F6272616B650000007472616372
:101A30006B000000736574007265736574000000CC
:101A400070B506460C461546304600F019FF2B4689
:101A500000220221204600F042FD2B4603220021F5
:101A6000204600F063FD2A460221204600F0FCFCDF
:101A700070BD000070B505460C4635B1012D10D083
:101A8000022D1AD0032D30D123E0601E002801DC86
:101A9000002000E0601E02460021154801F0D3FA44
:101AA00024E0601E002801DC002000E0601E0246E9
:101AB00001210F4801F0C7FA18E0601E002801DC80
:101AC000002000E0601E02460221094801F0BBFA36
:101AD0000CE0601E002801DC002000E0601E0246D1
:101AE0000321034801F0AFFA00E000BF00BF70BD62
:101AF0000004004010B5174941F2010000F030F831
:101B00000021144800F049F80121124800F045F87E
:101B10000221104800F041F803210E4800F03DF882
:101B200040220D494FF44060FFF78AFF80220A49A6
:101B30004FF44060FFF784FF0122084940F601405E
:101B4000FFF77EFF0222054940F60140FFF778FFCC
:101B500010BD0000000400400000024000040240EC
:101B60007FB505460C46284600F08AFE6FF080706F
:101B700000F098FE684601F012FBEF20ADF800007F
:101B8000632002906946204601F0AAFA204601F03F
:101B9000A2FA204601F02EF97FBD3EB504460D465F
:101BA000684601F090FA0120ADF800000020ADF881
:101BB00004006A462946204601F022F900222946FF
:101BC000204601F040FA60222946204601F00EFA34
:101BD00008222946204601F049FA3EBD0146052962
:101BE00013D2DFE801F00306090C0F000848007863
:101BF000704708480078FBE707480078F8E707488F
:101C00000078F5E706480078F2E700BFF0E700004B
:101C100008000020090000200A0000200B0000201E
:101C20000C00002070B504460D462049206801F0E4
:101C300083FB012839D1206801F030FB606800F097
:101C40005FF91BA0E169FFF7DFF90021D4E9022069
:101C5000401E11541EA0A268E169FFF7D5F9A068E3
:101C6000A847D4E90201FEF7C6FA606800F048F917
:101C7000217D206900F0C3FB0646324619A0E169C8
:101C8000FFF7C2F9217D206900F076FA217D2069F5
:101C900000F0A5FAA06900F0ADF8217D206900F000
:101CA0007BFA0249206801F03AFB70BD040304008E
:101CB00064656275672025732055534152545F490E
:101CC0004E545F464C41475F49444C450A00000072
:101CD0006465627567202573205258202573200A99
:101CE000000000006465627567202573205258204B
:101CF000646D615F7472616E736665725F6E756D3F
:101D00006265725F676574203D202564200A0000CB
:101D100010B507202D4908604FF4406088802C489A
:101D200088600015C8604FF4406008822848486108
:101D30004015886141F204108883264808624FF4F8
:101D400016504862252081F8280040F61640488544
:101D50002148C8628020086320484863022081F837
:101D60003800042081F83900084600F043F80720C5
:101D70001B49086040F6024088801A488860C014F9
:101D8000C86040F602400882164848610015886124
:101D900041F212008883144808624FF416504862DA
:101DA000272081F8280040F6154048850F48C86272
:101DB000802008630E484863012081F83800042021
:101DC00081F83900084600F015F810BD34010020F4
:101DD0000000024000100140340000200064024076
:101DE000700100200008024000480040B4000020BC
:101DF0000060024010B58AB00446A08800F040FDA3
:101E0000208A00F03DFD00220221D4E9020300F007
:101E100066FB03220021D4E9020300F087FBD4E92A
:101E20000202216800F020FB00220221D4E9050310
:101E300000F055FB03220021D4E9050300F076FBF6
:101E4000D4E90502216800F00FFBA08B00F018FD1B
:101E50004FF41651206A01F0ADF90021206A01F01B
:101E600087FA0021206A01F0A3FA0021206A01F01C
:101E70008FFA206A01F025FA0821206A01F090FA11
:101E80000421206A01F07CFA4FF44171206A01F0CC
:101E900039FA94F828000222114600F0F3FB608D15
:101EA00000F0EEFC01A800F099FA206A001D0190F4
:101EB00001200290E06A0390002004900590012028
:101EC000069000200790206B08904FF44030099056
:101ED00094F8381001AA606B00F0D4F994F8392016
:101EE00094F83810606B00F067F994F83810606B64
:101EF00000F052F94021206A01F0D9F90AB010BD72
:101F0000014908607047000000000020014890ED82
:101F1000000B7047180000201FB540F6034000F08A
:101F2000AFFC022300220121184800F0D8FA022356
:101F300003220021154800F0F9FA40F6034000F0B2
:101F40009FFC202302220021104800F0C8FA41F231
:101F5000040000F095FC684601F021F94EF660207F
:101F6000ADF80000462002906946094801F0B8F833
:101F7000074801F0B0F80121054801F0FDF8002202
:101F80000121362000F07EFB1FBD0000000C024046
:101F90000010004010B52021014800F098FA10BD53
:101FA000000C02400148007870470000100000203B
:101FB00001490870704700001000002010B52DED99
:101FC000028B002414480078012802D1BDEC028B5A
:101FD00010BDFFF7DFFF00B9F8E703E0641C012044
:101FE00000F0B4F8FFF7D6FF0128F7D04FF4AA713C
:101FF00061434908642201FB02F0FEF775FA9FED88
:10200000070B53EC102BFEF7FDF9064A03C2012023
:102010000149087000BFD9E7100000208DEDB5A080
:10202000F7C6B03E1800002010B50221084800F0A5
:102030004CFA0848FFF764FF0F2000F087F80548C6
:10204000FFF75EFF0221024800F03DFA10BD0000DC
:10205000000C024000100140014908607047000078
:102060000400002010B5044600F052F8214601207B
:10207000FFF700FD21460320FFF7FCFC10BD10B563
:1020800000F046F864210020FFF7F4FC64210120F1
:10209000FFF7F0FC64210220FFF7ECFC6421032031
:1020A000FFF7E8FC10BD10B5044600F031F82146FA
:1020B0000020FFF7DFFC21460220FFF7DBFC10BD0C
:1020C00070B504460D4600F023F821460020FFF7C6
:1020D000D1FC29460220FFF7CDFC70BD10B50446A7
:1020E00000F016F821460020FFF7C4FC214603202B
:1020F000FFF7C0FC10BD10B5044600F009F82146FA
:102100000120FFF7B7FC21460220FFF7B3FC10BD0A
:1021100010B500210846FFF7ADFC00210120FFF7B4
:10212000A9FC00210220FFF7A5FC00210320FFF7F6
:10213000A1FC10BD00B5024603E04FF47A7000F038
:1021400005F8101EA2F10102F7D100BD0349086095
:1021500000BF024909680029FBD170472000002018
:102160000448006820B103480068401E0149086027
:10217000704700002000002010B501EB4102D300A1
:1021800000F11002D25822F0010301EB4102D40009
:1021900000F11002135110BD10B501EB4102D30044
:1021A00000F11002D25842F0010301EB4102D400C9
:1021B00000F11002135110BD30B5134601EB41047C
:1021C000E50000F11004625922F0606242EA4362C5
:1021D00001EB4104E50000F11004625130BD10B57F
:1021E00001EB4102D30000F11002D25822F00103AA
:1021F00001EB4102D40000F110021351002301EB66
:102200004102D40000F11002135101EB4102D4004D
:1022100000F11402135101EB4102D40000F1180245
:10222000135101EB4102D40000F11C02135101EBE8
:102230004102D40000F120021351212301EB41029D
:10224000D40000F12402135104290CDA01EB4102FD
:102250005300C1F3400203EB82033D229A4083689E
:102260001A4382600DE00A1FD1B201EB4102530014
:10227000C1F3400203EB82033D229A40C3681A4334
:10228000C26010BD70B501EB4104E50000F124040B
:10229000645924F0040501EB4104E60000F1240434
:1022A000A55101EB4104E60000F118041568A551A1
:1022B00001EB4104E60000F11C049568A55101EB17
:1022C0004104E60000F11404D569A55101EB410475
:1022D000E50000F1100463593F4C2340146944EABF
:1022E0008404156A2C4395692C43234301EB410474
:1022F000E50000F110046351546874B901EB410426
:10230000E50000F11004645944F4007501EB410448
:10231000E60000F11004A5511FE05468012C0ED115
:1023200001EB4104E50000F11004645924F4007548
:1023300001EB4104E60000F11004A5510DE001EBB2
:102340004104E50000F11004645944F4004501EB38
:102350004104E60000F11004A551D46874B901EB02
:102360004104E50000F11004645944F4806501EB78
:102370004104E60000F11004A5510DE001EB410419
:10238000E50000F11004645924F4806501EB410478
:10239000E60000F11004A551546974B901EB410441
:1023A000E50000F11004645944F4807501EB410428
:1023B000E60000F11004A5510DE001EB4104E50039
:1023C00000F11004645924F4807501EB4104E60027
:1023D00000F11004A55170BD3F87FCFF0021016092
:1023E00001214160002181600121C1600021016162
:1023F0000121416100218161C16101627047024692
:1024000001EB4100C30002F11400C0587047000006
:102410000149086070470000143C0140014604482F
:102420000068084008B1012070470020FCE7000068
:10243000143C014070B504460D4600BF0721094811
:10244000006800F050FF0028F8D0A1B205480068ED
:1024500000F029FF07210348006800F037FF012042
:1024600070BD000000000020F0B503461C6A5D6AE4
:1024700000200DE00126864016403EB187000F2661
:10248000BE40B443860001FA06F63443461CB0B29F
:102490000828EFD3082011E00126864016405EB1DF
:1024A000A0F10806B7000F26BE40B543A0F108060C
:1024B000B60001FA06F63543461CB0B21028EBD33D
:1024C0001C625D62F0BD81627047816170470246A7
:1024D0001069084008B1012070470020FCE7F0B502
:1024E00004460D4616462168E268002019E00127DF
:1024F00087401F409FB14FEA400C032707FA0CF7B3
:10250000B943470005FA07F739434FEA400C032760
:1025100007FA0CF7BA43470006FA07F73A43471C95
:10252000B8B21028E3D32160E260F0BDF0B50C46EC
:102530001546012C03D146681E43466002E04668FA
:102540009E434660826800210DE001268E401E40B9
:102550003EB14F000326BE40B2434E0005FA06F6D8
:1025600032434E1CB1B21029EFD38260F0BD00009F
:1025700010B540F6044000F083F940F6034000F047
:102580007FF940F6064000F07BF94FF4406000F020
:1025900077F90823002201211648FFF7A0FF8023C6
:1025A000002201211448FFF79AFF0823002201218D
:1025B0001248FFF794FF2023002201211048FFF763
:1025C0008EFF0823002211460A48FFF7AFFF802341
:1025D000002211460848FFF7A9FF082300221146F0
:1025E0000648FFF7A3FF2023002211460448FFF707
:1025F0009DFF10BD00100240000C02400018024078
:102600000000024000F0E2F94FF4A06000F09CF8F6
:10261000FFF7AEFFFFF76EFAFFF77AFB0B48FFF705
:102620006FFC0BA0FEF7F0FC0E48FFF769FC0EA054
:10263000FEF7EAFCFFF770FCFFF74CF905E0FFF747
:10264000BDFC00F0EBF900F097FBF8E7001001404B
:10265000676433322072756E6E696E672E2E2E0A95
:1026600000000000004800406D63752064656275DD
:102670006720626C7565746F6F746820746573741D
:102680000A0000002DE9F04103460D4616460024DD
:102690000027A0462A48006800F4E060B0F5E06F2B
:1026A00003D100BF4FF0040830E02548006800F473
:1026B000E060B0F5C06F03D101274FF0030825E0BB
:1026C0001F48006800F4E060B0F5A06F02D1022757
:1026D000B8461BE01A48006800F4E060B0F5806F6F
:1026E00003D103274FF0010810E01548006800F4FB
:1026F000E060B0F5407F03D104274FF0000805E00B
:102700004FF4A06000F020F80227B846C7F104009B
:1027100005FA00F4C8F104010F20C840304004431A
:1027200024010848C45403F01F01012088405911B6
:10273000890001F1E021C1F80001BDE8F08100004D
:102740000CED00E000E400E002490143024A1160A0
:10275000704700000000FA050CED00E02DE9F04F95
:102760008CB0064600200A903EA090E8004CC0685D
:10277000CDE905BECDF810A007900FF2EC0ADAE91A
:10278000000ACDE9020A0FF2E00ADAE9000ACDE90F
:10279000000A38480068C0F381000B900B9820B104
:1027A000012804D0022828D103E0334927E0334927
:1027B00025E03048001F006800F03F072D48001F4B
:1027C0000068C0F3881C2B48001F0068C0F301405C
:1027D000401C4FEA40092748001F006800F48008A9
:1027E000B8F5800F01D1254B00E0234BB3FBF7F088
:1027F00000FB0CF0B0FBF9F101E01F4900BF00BF86
:102800001C480068C0F3031404A8055D21FA05F212
:1028100018480068C0F3822402A8055D22FA05F07A
:10282000099014480068C0F342341DF8045022FA9D
:1028300005F0089036B1012E06D0022E06D0032EE8
:102840000AD106E00A9108E00A9206E009980A9087
:1028500003E008980A9000E000BF00BF0A980CB09F
:10286000BDE8F08F0000000000000000010203043A
:1028700006070809083802400024F40040787D016A
:10288000074A02EB9011D1F8001800F01F03012253
:102890009A401143024B03EB9012C2F800187047A4
:1028A000003002406FF08071884205D10549096807
:1028B0000140044A116004E0024909680143014AE9
:1028C000116070478C380240002000213A4A12689B
:1028D00042F00102384B1A6000BF401C364A1268B1
:1028E00002F0020111B9B0F5A06FF6D1324A1268B8
:1028F00002F002020AB900BFFEE72F4A4032126816
:1029000042F080522C4B40331A602C4A126842F439
:1029100040422A4B1A60284A08321268264B083374
:102920001A601A46126842F400421A601A46126887
:1029300042F4A0521A60224A1B1F1A601A1F126822
:1029400042F080721B1F1A6000BF1B4A126802F01F
:102950000072002AF9D0194A126842F48032174BEB
:102960001A6000BF154A526802F48032002AF9D07A
:10297000124A126842F40032104B1A6000BF0F4A2C
:10298000526802F40032002AF9D00B4A0832126869
:1029900022F00302084B08331A601A46126842F00C
:1029A00002021A6000BF044A0832126802F00802EC
:1029B000002AF8D070470000003802400070004044
:1029C0001078000A10B5FFF77FFF10BD10B5114851
:1029D00000681149B0FBF1F4601EB0F1807F01D3B3
:1029E00001200FE0601E4FF0E02148610F214FF001
:1029F000FF30FEF725FA00204FF0E0218861072024
:102A00000861002008B100BFFEE70021481EFEF764
:102A100017FA10BD2800002040420F0010B5D24820
:102A2000007800B910BD0020FFF7D8F8012814D1B4
:102A3000FFF7D4F8012810D10220FFF7CFF80128C2
:102A40000BD10320FFF7CAF8012806D10420FFF7B5
:102A5000C5F8012801D1FFF712FB0020FFF7BEF8EF
:102A600090B90120FFF7BAF870B90220FFF7B6F865
:102A700050B90320FFF7B2F830B90420FFF7AEF8E1
:102A800010B95020FFF70FFB0020FFF7A7F8B8B9E7
:102A90000120FFF7A3F8012812D10220FFF79EF8CA
:102AA00001280DD10320FFF799F8012808D104204F
:102AB000FFF794F8012803D164215020FFF700FBB1
:102AC0000020FFF78BF8012815D1FFF787F890B9A0
:102AD0000220FFF783F801280DD10320FFF77EF8CD
:102AE000012808D10420FFF779F8012803D16421D7
:102AF0005020FFF7E5FA0020FFF770F8012814D105
:102B0000FFF76CF8012810D10220FFF767F860B9D1
:102B10000320FFF763F8012807D10420FFF75EF8D0
:102B2000012802D15020FFF7BEFA0020FFF756F827
:102B3000012815D1FFF752F8012811D10220FFF723
:102B40004DF801280CD10320FFF748F840B90420C4
:102B5000FFF744F8012803D150216420FFF7B0FAB1
:102B60000020FFF73BF8012815D1FFF737F80128BF
:102B700011D10220FFF732F801280CD10320FFF712
:102B80002DF8012807D10420FFF728F818B95021A3
:102B90006420FFF795FA0020FFF720F8B0B9012074
:102BA000FFF71CF890B90220FFF718F801280DD1A3
:102BB0000320FFF713F8012808D10420FFF70EF8CF
:102BC000012803D164215020FFF77AFA0020FFF793
:102BD00005F8012814D1FFF701F888B90220FEF7A3
:102BE000FDFF68B90320FEF7F9FF012808D1042092
:102BF000FEF7F4FF012803D164215020FFF760FAAB
:102C00000020FEF7EBFF012814D1FEF7E7FF0128B3
:102C100010D10220FEF7E2FF60B90320FEF7DEFFCD
:102C200040B90420FEF7DAFF012803D150216420C7
:102C3000FFF746FA0020FEF7D1FF012814D1FEF776
:102C4000CDFF012810D10220FEF7C8FF01280BD1CB
:102C50000320FEF7C3FF38B90420FEF7BFFF18B901
:102C600050216420FFF72CFA0020FEF7B7FF01285F
:102C700014D1FEF7B3FF012810D10220FEF7AEFFFA
:102C800001280BD10320FEF7A9FF38B90420FEF775
:102C9000A5FF18B964215020FFF712FA0020FEF7B3
:102CA0009DFF012812D1FEF799FF78B90220FEF7A7
:102CB00095FF58B90320FEF791FF38B90420FEF7BD
:102CC0008DFF012802D15020FFF7EDF90020FEF71B
:102CD00085FF012813D1FEF781FF01280FD10220C3
:102CE000FEF77CFF58B90320FEF778FF38B90420BF
:102CF000FEF774FF18B950216420FFF7E1F90020B6
:102D0000FEF76CFF012813D1FEF768FF01280FD1F1
:102D10000220FEF763FF58B90320FEF75FFF38B9C2
:102D20000420FEF75BFF18B964215020FFF7C8F9B3
:102D30000020FEF753FF012813D1FEF74FFF0128B3
:102D40000FD10220FEF74AFF58B90320FEF746FFD5
:102D500038B90420FEF742FF18B950216420FFF76C
:102D6000AFF900BF5EE600002400002001490870B2
:102D7000704700002400002010B52DED028BFFF7F6
:102D800011F901282AD11748FFF7BAF8FFF7BEF862
:102D9000B0EE408AF0EE608A53EC182B12A0FEF7DA
:102DA00033F9FFF7B3F8B0EE408AF0EE608A9FED9A
:102DB0000F0B53EC102B51EC180BFDF7A3FB0AD2B1
:102DC0005020FFF78BF94FF47A70FFF7B3F9FFF754
:102DD00056F9FFF79DF90020FFF7EAF8BDEC028BEA
:102DE00010BD00000010014025660A000000000030
:102DF00000001440016841F080010160704700004C
:102E000010B531B101293FD002297DD003297CD1F1
:102E1000BFE0036A23F001030362836923F0030325
:102E20008361036A148823430362036A23F0020365
:102E30000362036A9488234303626A4B984202D078
:102E4000694B98421FD1036A23F004030362036AAB
:102E5000548823430362036A23F008030362036A6E
:102E6000D48823430362436823F480734360436838
:102E7000148923434360436823F400734360436829
:102E8000548923434360ABE0036A23F010030362D9
:102E9000836923F440738361036A148843EA04134B
:102EA0000362036A23F020030362036A948843EAFF
:102EB000041303624B4B984202D04B4B984226D1ED
:102EC000036A23F040030362036A548843EA04134D
:102ED0000362036A23F080030362036AD48843EA2F
:102EE00004130362436823F48063436043681489D6
:102EF00043EA84034360436823F400634360436808
:102F0000548943EA840301E002E068E0436067E03B
:102F1000036A23F480730362C36923F00303C3616C
:102F2000036A148843EA04230362036A23F40073E8
:102F30000362036A948843EA04230362294B98429C
:102F400002D0294B984223D1036A23F480630362A1
:102F5000036A548843EA04230362036A23F4006388
:102F60000362036AD48843EA04230362436823F4B8
:102F7000805343604368148943EA04134360436801
:102F800023F4005343604368548943EA04134360C5
:102F900026E0036A23F480530362C36923F4407379
:102FA000C361036A148843EA04330362036A23F4A7
:102FB00000530362036A948843EA04330362094BB3
:102FC000984202D0084B984208D1436823F48043CA
:102FD00043604368148943EA8413436000E000BF00
:102FE00000BF10BD000001400004014031B10129C3
:102FF0000CD0022913D0032922D118E0836923F0D1
:10300000700383618369134383611AE0836923F446
:10301000E0438361836943EA0223836111E0C3696A
:1030200023F07003C361C3691343C36109E0C3693B
:1030300023F4E043C361C36943EA0223C36100E0B0
:1030400000BF00BF704731B1012906D0022906D068
:10305000032908D105E0426306E0826304E0C2630D
:1030600002E0026400E000BF00BF704731B10129F7
:103070000CD0022913D0032922D118E0836923F050
:10308000080383618369134383611AE0836923F42E
:1030900000638361836943EA0223836111E0C369AA
:1030A00023F00803C361C3691343C36109E0C36923
:1030B00023F40063C361C36943EA0223C36100E0F0
:1030C00000BF00BF70470021018041808180C18026
:1030D000018141817047016841F001010160704741
:1030E0000A8882621D4A90420ED0B0F1804F0BD008
:1030F0001B4A904208D01B4A904205D01A4A90427F
:1031000002D01A4A90420BD1026822F0700202608B
:1031100002684B881A43026002688B881A43026077
:103120008A68C262124A90420AD0124A904207D07C
:10313000026822F4407202600268CB881A4302607F
:10314000064A904202D0094A904201D10A7B0263AA
:10315000426942F0010242617047000000000140F4
:103160000004004000080040000C00400004014042
:103170000010004000140040C2680A43C26070475B
:10318000CA43026170470246D06800EA0103106931
:10319000084010B10BB1012070470020FCE700216E
:1031A0000180418081804FF6FF7181600021C180E4
:1031B000017370472DE9F04704460D460027B846D5
:1031C000B94600263349601A8C4235D00CDC3248AF
:1031D0002044E8B1B0F5806F1FD0B0F5006F21D06A
:1031E000B0F5406F32D122E0B0F5806F29D0B0F554
:1031F000184F03D0B0F51C4F28D104E00320FFF78F
:10320000ADFA074623E00320FFF7A8FA07461EE0C1
:103210000220FFF7A3FA074619E00220FFF79EFA03
:10322000074614E00220FFF799FA07460FE0022054
:10323000FFF794FA07460AE00220FFF78FFA0746E5
:1032400005E00220FFF78AFA074600E000BF00BF52
:10325000E06800F4004070B1780000EB5500B0FB6E
:10326000F5F64FF6F07006EA0008C6F3420948EAA0
:103270000900A0600CE007EB5500B0FBF5F64FF637
:10328000F07006EA000806F00F0948EA0900A0609D
:10329000BDE8F0870078004000BCFFBF01464868E9
:1032A000C0F308007047C1F30802426070474269EA
:1032B00022F040024261426901F040031A43426138
:1032C0007047C16841F40051C160704710B500EB10
:1032D0009112126801F01F040123A3409A4300EBEE
:1032E00091131A6010BD10B5024602EB91100068F0
:1032F00001F01F040123A340184008B1012010BDB4
:103300000020FCE710B500EB9112126801F01F04D9
:103310000123A3401A4300EB91131A6010BD10B5AE
:1033200000EB91521268C1F304440123A3409A4375
:1033300000EB91531A6010BD70B5024600230024C3
:10334000C1F38910105801F01F060125B54000EAAD
:10335000050302EB91500068C1F304460125B54016
:1033600000EA050414B10BB1012070BD0020FCE798
:10337000C26822F4C062C260C2680A43C260704779
:103380000A460021C16821F004011143C160704761
:10339000026922F44052026102690A4302617047E5
:1033A0000A460021C16821F008011143C16070473D
:1033B000C26822F48052C260C2680A43C260704789
:1033C000DDDDDDDDDCBBBBDDDDDDDDDDDDDDDDDD72
:1033D00098888888888888887777777777888888B2
:1033E000855555566666666666666666666888884A
:1033F0008333333222222222222222222228888D43
:1034000020340008000000203400000028100008CC
:103410005434000834000020FC0700003810000875
:103420000010014000000000010101010100000046
:10343000000000000000000000000000000000008C
:103440000000000000000000001C4E0E0000000004
:043450000000000078
:04000005080001AD41
:00000001FF
