:020000040800F2
:1000000020080020C501000801090008F9080008BF
:10001000FD0800083D080008A90A000800000000CB
:100020000000000000000000000000002F09000890
:1000300041080008000000002D09000831090008EF
:10004000DF010008DF010008DF010008DF01000810
:10005000DF010008DF010008DF010008DF01000800
:10006000DF010008DF010008DF010008DF010008F0
:10007000DF010008DF010008DF010008DF010008E0
:10008000DF010008DF010008DF010008DF010008D0
:10009000DF010008DF010008DF0100089508000803
:1000A000DF010008DF010008DF010008DF010008B0
:1000B000DF010008DF010008DF010008DF010008A0
:1000C000DF010008DF010008DF010008DF01000890
:1000D000DF0100080D0A0008DF010008550A0008CA
:1000E00045080008DF010008DF010008DF01000803
:1000F000DF010008DF010008DF010008DF01000860
:10010000DF010008DF010008DF010008DF0100084F
:10011000DF010008DF010008DF010008DF0100083F
:10012000DF010008DF010008DF010008DF0100082F
:10013000DF010008DF010008DF010008DF0100081F
:10014000DF010008DF010008DF010008DF0100080F
:10015000DF010008DF010008DF010008DF010008FF
:10016000DF010008DF010008DF010008DF010008EF
:10017000DF010008DF010008DF01000800000000C7
:10018000DF010008DF010008DF010008DF010008CF
:10019000DF010008DF010008DF01000800000000A7
:1001A000DF010008DF010008DF010008DFF810D0E0
:1001B00000F080F900480047191A0008AFF30080EA
:1001C000200800200648804706480047FEE7FEE773
:1001D000FEE7FEE7FEE7FEE7FEE7FEE7FEE7FEE7F7
:1001E00039090008AD010008D2B201E000F8012B86
:1001F000491EFBD270470022F6E710B513460A46A7
:1002000004461946FFF7F0FF204610BD10B5002246
:1002100000E0521C835C8C5CA34201D1002BF8D11E
:10022000D8B2E1B2401A10BD034611F8012B00F814
:10023000012B002AF9D118467047000070B50F4D08
:1002400000B92868002412E00A4602E09E4203D06A
:10025000521C1378002BF9D1DAB2224305D02BB10E
:1002600024B1002100F8011B04E00446401C06787C
:10027000002EE9D12860204670BD0000200000203B
:100280000FB400B58DB010A909900B9000914FF0FC
:10029000FF300A9000200C90054806900548079012
:1002A0006A4609A80F9900F0D7F80DB05DF814FB65
:1002B00075040008930400082DE9FF5F1D464FF008
:1002C000FF3BD5E9014691465F464FF00008A9691A
:1002D0007F1C01988847296A824688470028F6D102
:1002E000BAF1FF3F0CD024F4C064002E19DD600683
:1002F00014D5BAF12B0F09D0BAF12D0F0ED103E0AE
:10030000584604B0BDE8F09F44F48064A9697F1C9E
:1003100001988847761E8246002E02DDBAF1300F22
:1003200003D0B9F1000F26D032E0A969761E44F45B
:1003300000747F1C019888478246002E05DDBAF1C3
:10034000780F06D0BAF1580F03D0B9F1000F10D0D2
:100350001EE0B9F1000F02D0B9F1100F18D1A96950
:10036000761E24F400747F1C019888478246102072
:1003700002E0082000E00A20814609E008FB0908A5
:10038000A969761E44F400747F1C01988847824650
:10039000002E05DD4946504600F04AF80028EDDA07
:1003A000E96901988847A00502D46FF00100A8E729
:1003B000E00725D1600613D5600502D5C8F100001D
:1003C00000E0404629680A1D2A600968220501D517
:1003D000087015E0220701D5088011E008600FE0E1
:1003E0002868011D29600068210502D580F8008079
:1003F00006E0210702D5A0F8008001E0C0F80080E7
:1004000038467EE730B50B46014600202022012405
:1004100009E021FA02F59D4205D303FA02F5491BD2
:1004200004FA02F52844151EA2F10102F1DC30BDE8
:100430003A2800D2303820F02002412A01D3A2F11C
:100440003700884201D34FF0FF30704702681144F3
:100450001378016018467047D1600449516104491E
:10046000116200211161114600F03CB84D040008F2
:10047000D9040008426842B1016811F8013B23B178
:10048000521EC0E90012184670470121C160881E43
:10049000704742685AB1C368016843B983688B42A8
:1004A00005D0491E521CC0E90012002070474FF0D1
:1004B000FF307047064C074D06E0E06840F001034E
:1004C00094E8070098471034AC42F6D3FFF772FE69
:1004D00094270008B4270008C0B24FF4F05100F090
:1004E00099B900002DE9F34F8BB04FF0000801F1EE
:1004F0000C000C464FF0010B46460DF1080A019026
:100500006269012101989047051E2DD0252D2CD020
:10051000216A8847C0B16269012101989047216A28
:1005200088470028F7D1411E62690198904700E092
:10053000761CA1690B988847216A88470028F7D163
:10054000E1690B988847DBE7A1690B988847074664
:10055000A84201D1761CD3E7E1690B9888477F1C3C
:1005600002D1B8F1000F6FD047E1002762693D4624
:100570003946019890472A2804D1626901210198DF
:1005800090470125DFF88892626901210198904720
:10059000A0F130010A290AD24F45E5DC07EB8701BB
:1005A00000EB4107303FDFD445F01005ECE7E906EA
:1005B00001D46FF000476C280AD04C2814D068286A
:1005C00015D06A280DD074281CD07A281AD01DE0C6
:1005D00062690121019890476C2802D045F004051A
:1005E00014E045F002050DE045F020050AE06269DF
:1005F000012101989047682802D045F0080505E0E0
:1006000045F400656269012101989047C4E90157EA
:1006100065283DD019DC58287AD00CDC452837D025
:1006200004DC252826D0412831D131E046282FD0BE
:1006300047282CD12CE05B2877D0612828D063286C
:100640007CD0642823D15AE0D1E06F2848D008DC60
:1006500066281DD067281BD0692821D06E2816D1A6
:1006600027E0702845D0732868D0752847D07828AF
:100670000DD14DE0A1690B988847054625283FF428
:1006800069AFE1690B9888476D1C3FF46AAFB4E02D
:1006900023466A466FF001000B99AFF300809FE09C
:1006A00045F040006060A80723464FF0000236D4B2
:1006B0003EE0E8077FF447AF2068011D2160006835
:1006C000290501D506701BE7290701D5068017E724
:1006D000A90703D5F117C0E9006111E706600FE72C
:1006E00045F040006060A80723464FF0080216D48A
:1006F0001EE040F60E0125EA0100606016E045F0BC
:1007000040006060A80723464FF00A0207D40FE0BC
:1007100045F040006060A80708D5234610226FF01E
:1007200001000B99AFF300805AE007E02346102246
:100730006FF001000B99FFF7BFFD51E04FF000098A
:100740004F464B46632802D05B2807D041E0207912
:10075000C00601D40120A06001273AE062690121AE
:10076000019890475E2805D14FF00109626949461A
:1007700001989047216939B900210A46534643F848
:100780002120491C0829FADBB0B3216969B9C117D6
:1007900000EBD16253110AEB830122F01F02821A8F
:1007A00001200B68904003430B60626901210198AE
:1007B00090475D28E8D1B9F1000F09D000205146DB
:1007C00051F82020D24341F82020401C0828F7DBB4
:1007D00002AB224600976FF001000B99AFF3008047
:1007E00000280CDA401C08D1BBF1000F05D04FF0F7
:1007F000FF300DB0BDE8F08FFFE74046F9E7E907AD
:1008000001D108F1010806444FF0000B78E6000022
:10081000CCCCCC0C7F2801D9002208E0064A02EBA0
:100820005002C007127800D1120902F00F02012015
:1008300090400840704700005427000800BFFEE7C2
:100840007047000010B54FF4005000F01DFF012864
:1008500009D141030C4800F071FF0C4908704FF4B6
:10086000005000F00BFF4FF4006000F00DFF012876
:1008700009D1C102044800F061FF054908704FF436
:10088000006000F0FBFE10BD000402400F000020DD
:100890001000002010B5802000F0F6FE01280ED1D7
:1008A00080210F4800F04AFF0E49087080210E4851
:1008B00000F044FF0D490870802000F0DFFE4FF487
:1008C000807000F0E1FE012809D1C103084800F062
:1008D00035FF084908704FF4807000F0CFFE10BD5E
:1008E000000802400C000020001802400D0000200B
:1008F000000402400E00002000BFFEE700BFFEE73C
:100900007047000010B5002807DA0A07140E054AE0
:1009100000F00F031B1FD45403E00A07130E024A12
:10092000135410BD18ED00E000E400E0704770477C
:1009300010B500F04BFD10BD08B53048006840F41C
:1009400070002E4908602E48006840F001002C49D4
:10095000086000BF2A48006800F002000028F9D0B3
:1009600000BF27480830006840F080002449083163
:1009700008600020009002E00098401C0090009861
:100980005028F9D31E480830006840F090001C49F8
:10099000083108600020009002E00098401C0090A0
:1009A00000985028F9D300BF15480830006820F09F
:1009B00003001349083108601148006811490840D4
:1009C0000F4908600846006820F480200860002075
:1009D0000B490831086000BF094808300068002052
:1009E0000028F9D108480649091D0860002004497B
:1009F0000C31086001F0FAF908BD000088ED00E054
:100A000000380240FFFFF6FE1030002400B589B028
:100A10000A48019002900A480390802004900948F7
:100A2000059002208DF818000748079007A008904D
:100A3000002101A800F0DEFA09B000BD001001405D
:100A40002800002000640240280100205553415234
:100A50005430000000B589B00B4801900B4802905B
:100A60000B480390802004900A48059001208DF8DF
:100A700018000948079009A008900A48016801A8D1
:100A800000F0B8FA09B000BD004800400010014075
:100A9000A80000200060024064010020555341522C
:100AA000543200000800002000BFFEE70FB4054BE1
:100AB00010B503A9044A029800F018F810BC5DF8BC
:100AC00014FB0000A11600082400002002E008C862
:100AD000121F08C1002AFAD170477047002001E0B8
:100AE00001C1121F002AFBD1704700002DE9FF4F02
:100AF0008BB09A460F460546002606E025280BD007
:100B000052460D9990476D1C761C28780028F5D127
:100B10000FB03046BDE8F08F0024A04601226049A6
:100B200000E0044315F8013F203B02FA03F00842BD
:100B3000F7D128782E2817D115F8010F44F00404B6
:100B40002A280ED06FF02F022878A0F13001092951
:100B50000AD808EB880102EB410100EB01086D1C8B
:100B6000F2E757F8048B6D1C287869283ED006DC24
:100B70000028CDD063280BD0642804D136E0732838
:100B800010D075284BD052460D999047761C85E0C1
:100B900017F8040B8DF8000000208DF80100E946DD
:100BA000012003E057F8049B4FF0FF3061074FF03E
:100BB000000401D40AE0641C44450DDA8442FADBE7
:100BC00019F804100029F6D106E0641C8442FCDB0D
:100BD00019F804100029F8D1264404E019F8010B93
:100BE00052460D999047641EF8D257E001CF4FF05E
:100BF0000A0B002802DA40422D2102E0210504D52B
:100C00002B218DF82410012103E0E10705D02021DC
:100C1000F7E70DF1200908910CE00021F9E701CF79
:100C20004FF00A0BF9E75946FFF7ECFB01F13002F0
:100C300009F8012D0028F6D1ADEB090000F1200BD9
:100C4000600701D44FF00108D84502DDA8EB0B0086
:100C500000E000208046002406E009A85246005D1E
:100C60000D999047641C761C08988442F5DB04E0DB
:100C7000302052460D999047761CB8F10001A8F13A
:100C80000108F5DC05E019F8010B52460D99904773
:100C9000761CBBF10001ABF1010BF4DC6D1C34E7F9
:100CA0000928010010B5024800F018FB10BD000033
:100CB000F50C000870B505460CA12846FFF7BEFAF2
:100CC000064631460A48FFF7AFFA01240BE007A1B8
:100CD0000020FFF7B3FA0646054901EB84103146C0
:100CE000FFF7A2FA641C0A2CF1D370BD20000000AB
:100CF000A001002038B504462046FFF7DBFF6A4616
:100D000029A12A48FFF7BCFA29A128484038FFF753
:100D10007DFA08B900F03EFB28A124484038FFF7CF
:100D200075FA18B90099C8B200F0FFFA26A11F4859
:100D30004038FFF76BFA18B90099C8B200F0D4FA3E
:100D400025A11A484038FFF761FA18B90099C8B2CE
:100D500000F006FB23A115484038FFF757FA18B9F1
:100D60000099C8B200F009FB21A110484038FFF7F4
:100D70004DFA08B900F0C5FA20A10C484038FFF739
:100D800045FA80B91FA10948FFF740FA18B90120B8
:100D900001F000FA07E01CA10448FFF737FA10B988
:100DA000002001F0F7F938BD25640000E0010020C3
:100DB0006361725F73746F70000000006361725F43
:100DC000666F7277617264006361725F6261636B08
:100DD00077617264000000006361725F6C65667425
:100DE000000000006361725F726967687400000050
:100DF0006361725F6272616B6500000074726163AF
:100E00006B00000073657400726573657400000008
:100E100070B506460C461546304600F045FF2B4699
:100E200000220221204600F091FC2B4603220021E3
:100E3000204600F0BAFC2A460221204600F04AFC77
:100E400070BD000070B505460C4635B1012D10D0BF
:100E5000022D1AD0032D30D123E0601E002801DCC2
:100E6000002000E0601E02460021154801F0C7FA8C
:100E700024E0601E002801DC002000E0601E024625
:100E800001210F4801F0BBFA18E0601E002801DCC8
:100E9000002000E0601E02460221094801F0AFFA7E
:100EA0000CE0601E002801DC002000E0601E02460D
:100EB0000321034801F0A3FA00E000BF00BF70BDAA
:100EC0000004004010B5174941F2010000F030F86D
:100ED0000021144800F049F80121124800F045F8BB
:100EE0000221104800F041F803210E4800F03DF8BF
:100EF00040220D494FF44060FFF78AFF80220A49E3
:100F00004FF44060FFF784FF0122084940F601409A
:100F1000FFF77EFF0222054940F60140FFF778FF08
:100F200010BD000000040040000002400004024028
:100F30007FB505460C46284600F0B6FE6FF080707F
:100F400000F0C4FE684601F0F3FAEF20ADF80000AF
:100F5000632002906946204601F09EFA204601F087
:100F600096FA204601F022F97FBD3EB504460D46B3
:100F7000684601F084FA0120ADF800000020ADF8C9
:100F800004006A462946204601F016F90022294647
:100F9000204601F034FA60222946204601F002FA88
:100FA00008222946204601F03DFA3EBD01460529AA
:100FB00013D2DFE801F00306090C0F00084800789F
:100FC000704708480078FBE707480078F8E70748CB
:100FD0000078F5E706480078F2E700BFF0E7000088
:100FE0000C0000200D0000200E0000200F0000204B
:100FF0001000002070B504460D462049206801F01D
:1010000065FB012839D1206801F012FB606800F00F
:101010005FF91BA0E169FFF749FD0021D4E9022037
:10102000401E11541EA0A268E169FFF73FFDA068B1
:10103000A847D4E90201FFF7DEF8606800F048F93C
:10104000217D206900F011FB0646324619A0E169B6
:10105000FFF72CFD217D206900F0C4F9217D206976
:1010600000F0F3F9A06900F0ADF8217D206900F0EF
:10107000C9F90249206801F01CFB70BD040304009B
:1010800064656275672025732055534152545F494A
:101090004E545F464C41475F49444C450A000000AE
:1010A0006465627567202573205258202573200AD5
:1010B0000000000064656275672025732052582087
:1010C000646D615F7472616E736665725F6E756D7B
:1010D0006265725F676574203D202564200A000008
:1010E00010B507202D4908604FF4406088802C48D7
:1010F00088600015C8604FF4406008822848486145
:101100004015886141F204108883264808624FF434
:1011100016504862252081F8280040F61640488580
:101120002148C8628020086320484863022081F873
:101130003800042081F83900084600F043F8072001
:101140001B49086040F6024088801A488860C01435
:10115000C86040F602400882164848610015886160
:1011600041F212008883144808624FF41650486216
:10117000272081F8280040F6154048850F48C862AE
:10118000802008630E484863012081F8380004205D
:1011900081F83900084600F015F810BD280100203C
:1011A00000000240001001402800002000640240BE
:1011B000640100200008024000480040A800002010
:1011C0000060024010B58AB00446A08800F06CFDB3
:1011D000208A00F069FD00220221D4E9020300F018
:1011E000B5FA03220021D4E9020300F0DEFAD4E9C3
:1011F0000202216800F06EFA00220221D4E9050300
:1012000000F0A4FA03220021D4E9050300F0CDFA8E
:10121000D4E90502216800F05DFAA08B00F044FDDE
:101220004FF41651206A01F08FF90021206A01F075
:1012300069FA0021206A01F085FA0021206A01F094
:1012400071FA206A01F007FA0821206A01F072FAA7
:101250000421206A01F05EFA4FF44171206A01F026
:101260001BFA94F828000222114600F01FFC608D42
:1012700000F01AFD01A800F0E7F9206A001D0190B6
:1012800001200290E06A0390002004900590012064
:10129000069000200790206B08904FF44030099092
:1012A00094F8381001AA606B00F022F994F8392004
:1012B00094F83810606B00F0B5F894F83810606B53
:1012C00000F0A0F84021206A01F0BBF90AB010BD7F
:1012D00001490860704700000400002001490860CF
:1012E000704700000800002010B5044600F052F8D6
:1012F00021460120FFF7A6FD21460320FFF7A2FDAE
:1013000010BD10B500F046F864210020FFF79AFDEB
:1013100064210120FFF796FD64210220FFF792FD72
:1013200064210320FFF78EFD10BD10B5044600F0C8
:1013300031F821460020FFF785FD21460220FFF706
:1013400081FD10BD70B504460D4600F023F821461E
:101350000020FFF777FD29460220FFF773FD70BDDF
:1013600010B5044600F016F821460020FFF76AFD8C
:1013700021460320FFF766FD10BD10B5044600F0BE
:1013800009F821460120FFF75DFD21460220FFF705
:1013900059FD10BD10B500210846FFF753FD00218F
:1013A0000120FFF74FFD00210220FFF74BFD002138
:1013B0000320FFF747FD10BD0349086000BF024945
:1013C00009680029FBD17047140000200448006818
:1013D00020B103480068401E0149086070470000C2
:1013E0001400002010B501EB4102D30000F11002FF
:1013F000D25822F0010301EB4102D40000F11002A7
:10140000135110BD10B501EB4102D30000F11002E1
:10141000D25842F0010301EB4102D40000F1100266
:10142000135110BD30B5134601EB4104E50000F146
:101430001004625922F0606242EA436201EB410407
:10144000E50000F11004625130BD10B501EB41021E
:10145000D30000F11002D25822F0010301EB410247
:10146000D40000F110021351002301EB4102D4001B
:1014700000F11002135101EB4102D40000F11402FB
:10148000135101EB4102D40000F11802135101EB9A
:101490004102D40000F11C02135101EB4102D400BF
:1014A00000F120021351212301EB4102D40000F18D
:1014B0002402135104290CDA01EB41025300C1F359
:1014C000400203EB82033D229A4083681A43826004
:1014D0000DE00A1FD1B201EB41025300C1F34002FB
:1014E00003EB82033D229A40C3681A43C26010BDD9
:1014F00070B501EB4104E50000F12404645924F0C7
:10150000040501EB4104E60000F12404A55101EBC0
:101510004104E60000F118041568A55101EB4104EF
:10152000E60000F11C049568A55101EB4104E600BA
:1015300000F11404D569A55101EB4104E50000F167
:10154000100463593F4C2340146944EA8404156A2B
:101550002C4395692C43234301EB4104E50000F142
:1015600010046351546874B901EB4104E50000F1C3
:101570001004645944F4007501EB4104E60000F1E5
:101580001004A5511FE05468012C0ED101EB410459
:10159000E50000F11004645924F4007501EB4104E6
:1015A000E60000F11004A5510DE001EB4104E50057
:1015B00000F11004645944F4004501EB4104E600D5
:1015C00000F11004A551D46874B901EB4104E500A1
:1015D00000F11004645944F4806501EB4104E60015
:1015E00000F11004A5510DE001EB4104E50000F10C
:1015F0001004645924F4806501EB4104E60000F115
:101600001004A551546974B901EB4104E50000F1DF
:101610001004645944F4807501EB4104E60000F1C4
:101620001004A5510DE001EB4104E50000F11004A8
:10163000645924F4807501EB4104E60000F11004C4
:10164000A55170BD3F87FCFF002101600121416071
:10165000002181600121C1600021016101214161FE
:1016600000218161C16101627047024601EB4100C6
:10167000C30002F11400C05870470000014908601F
:1016800070470000143C01400146044800680840CF
:1016900008B1012070470020FCE70000143C014025
:1016A00070B504460D4600BF07210948006800F0E8
:1016B000E4FF0028F8D0A1B20548006800F0BDFFA3
:1016C00007210348006800F0CBFF012070BD000037
:1016D00004000020F0B503461C6A5D6A00200DE09E
:1016E0000126864016403EB187000F26BE40B44317
:1016F000860001FA06F63443461CB0B20828EFD340
:10170000082011E00126864016405EB1A0F10806CF
:10171000B7000F26BE40B543A0F10806B60001FA97
:1017200006F63543461CB0B21028EBD31C625D624E
:10173000F0BD0AB1816100E0816270470246106924
:10174000084008B1012070470020FCE7F0B50446CE
:101750000D4616462168E268002019E001278740FF
:101760001F409FB14FEA400C032707FA0CF7B9431B
:10177000470005FA07F739434FEA400C032707FAF9
:101780000CF7BA43470006FA07F73A43471CB8B2CA
:101790001028E3D32160E260F0BD024650690840A2
:1017A00008B1012070470020FCE7F0B50C46154653
:1017B000012C03D146681E43466002E046689E4302
:1017C0004660826800210DE001268E401E403EB139
:1017D0004F000326BE40B2434E0005FA06F63243E0
:1017E0004E1CB1B21029EFD38260F0BD10B540F6A7
:1017F000044000F059FA40F6034000F055FA40F674
:10180000064000F051FA4FF4406000F04DFA082312
:10181000002201211648FFF799FF802300220121B1
:101820001448FFF793FF0823002201211248FFF715
:101830008DFF2023002201211048FFF787FF082396
:10184000002211460A48FFF7B0FF8023002211460C
:101850000848FFF7AAFF0823002211460648FFF7B1
:10186000A4FF2023002211460448FFF79EFF10BD6D
:1018700000100240000C024000180240000002402C
:1018800010B5044634B1012C0AD0022C0ED0032C22
:1018900018D111E0002208210C48FFF74AFF12E09E
:1018A000002280210A48FFF744FF0CE000220821B3
:1018B0000848FFF73EFF06E0002220210648FFF718
:1018C00038FF00E000BF00BF10BD00000010024064
:1018D000000C0240001802400000024010B504460F
:1018E00034B1012C0AD0022C0ED0032C18D111E0F7
:1018F000012208210C48FFF71CFF12E00122802181
:101900000A48FFF716FF0CE0012208210848FFF7FC
:1019100010FF06E0012220210648FFF70AFF00E041
:1019200000BF00BF10BD000000100240000C0240CC
:10193000001802400000024070B5054635B1012D87
:101940000AD0022D0ED0032D18D111E008210F4826
:10195000FFF723FF044612E080210D48FFF71DFF2B
:1019600004460CE008210B48FFF717FF044606E089
:1019700020210948FFF711FF044600E000BF00BF27
:10198000012C01D0012070BD0020FCE700100240B6
:10199000000C0240001802400000024010B504464E
:1019A00034B1012C10D0022C1AD0032C30D123E0FA
:1019B0000020FFF7C1FF18B90020FFF761FF02E028
:1019C0000020FFF78BFF24E00120FFF7B5FF18B9D7
:1019D0000120FFF755FF02E00120FFF77FFF18E02D
:1019E0000220FFF7A9FF18B90220FFF749FF02E024
:1019F0000220FFF773FF0CE00320FFF79DFF18B9EB
:101A00000320FFF73DFF02E00320FFF767FF00E040
:101A100000BF00BF10BD000000F0ECF94FF4A06063
:101A200000F0A6F8FFF7E2FEFFF74CFAFFF758FBCD
:101A30001048FFF74DFC10A0FFF738F81348FFF7E8
:101A400047FC13A0FFF732F8FFF72CF911E0012053
:101A5000FFF7A4FF6420FFF7AFFC00F0A1FB012813
:101A600005D10020FFF79AFF6420FFF7A5FC00F0E6
:101A7000E9F9ECE700100140676433322072756EBB
:101A80006E696E672E2E2E0A00000000004800408E
:101A90006D637520646562756720626C7565746F2F
:101AA0006F746820746573740A0000002DE9F041BA
:101AB00003460D46164600240027A0462A48006823
:101AC00000F4E060B0F5E06F03D100BF4FF0040810
:101AD00030E02548006800F4E060B0F5C06F03D145
:101AE00001274FF0030825E01F48006800F4E0607C
:101AF000B0F5A06F02D10227B8461BE01A48006873
:101B000000F4E060B0F5806F03D103274FF00108C7
:101B100010E01548006800F4E060B0F5407F03D1A4
:101B200004274FF0000805E04FF4A06000F020F813
:101B30000227B846C7F1040005FA00F4C8F1040111
:101B40000F20C8403040044324010848C45403F027
:101B50001F01012088405911890001F1E021C1F8DD
:101B60000001BDE8F08100000CED00E000E400E0C1
:101B700002490143024A1160704700000000FA0563
:101B80000CED00E02DE9F04F8CB0064600200A90E5
:101B90003EA090E8004CC068CDE905BECDF810A08D
:101BA00007900FF2EC0ADAE9000ACDE9020A0FF217
:101BB000E00ADAE9000ACDE9000A38480068C0F313
:101BC00081000B900B9820B1012804D0022828D165
:101BD00003E0334927E0334925E03048001F00681F
:101BE00000F03F072D48001F0068C0F3881C2B48F9
:101BF000001F0068C0F30140401C4FEA400927481D
:101C0000001F006800F48008B8F5800F01D1254B53
:101C100000E0234BB3FBF7F000FB0CF0B0FBF9F155
:101C200001E01F4900BF00BF1C480068C0F3031457
:101C300004A8055D21FA05F218480068C0F3822463
:101C400002A8055D22FA05F0099014480068C0F367
:101C500042341DF8045022FA05F0089036B1012EE6
:101C600006D0022E06D0032E0AD106E00A9108E023
:101C70000A9206E009980A9003E008980A9000E0AA
:101C800000BF00BF0A980CB0BDE8F08F0000000054
:101C9000000000000102030406070809083802409A
:101CA0000024F40040787D01074A02EB9011D1F83E
:101CB000001800F01F0301229A401143024B03EB6E
:101CC0009012C2F800187047003002406FF0807127
:101CD000884205D1054909680140044A116004E0C1
:101CE000024909680143014A116070478C3802407B
:101CF000002000213A4A126842F00102384B1A6073
:101D000000BF401C364A126802F0020111B9B0F55A
:101D1000A06FF6D1324A126802F002020AB900BF7F
:101D2000FEE72F4A4032126842F080522C4B40337B
:101D30001A602C4A126842F440422A4B1A60284A20
:101D400008321268264B08331A601A46126842F4A9
:101D500000421A601A46126842F4A0521A60224ADF
:101D60001B1F1A601A1F126842F080721B1F1A6034
:101D700000BF1B4A126802F00072002AF9D0194A0B
:101D8000126842F48032174B1A6000BF154A52683D
:101D900002F48032002AF9D0124A126842F400326A
:101DA000104B1A6000BF0F4A526802F40032002A3A
:101DB000F9D00B4A0832126822F00302084B0833AC
:101DC0001A601A46126842F002021A6000BF044A02
:101DD0000832126802F00802002AF8D070470000AA
:101DE00000380240007000401078000A10B5FFF77C
:101DF0007FFF10BD10B5124800684FF47A71B0FB38
:101E0000F1F4601EB0F1807F01D301200FE0601E6D
:101E10004FF0E02148610F214FF0FF30FEF772FDD7
:101E200000204FF0E021886107200861002008B100
:101E300000BFFEE70021481EFEF764FD10BD000054
:101E40001C00002010B5D248007800B910BD002059
:101E5000FFF7ACF8012814D1FFF7A8F8012810D13A
:101E60000220FFF7A3F801280BD10320FFF79EF80B
:101E7000012806D10420FFF799F8012801D1FFF7C6
:101E800040FA0020FFF792F890B90120FFF78EF892
:101E900070B90220FFF78AF850B90320FFF786F8DF
:101EA00030B90420FFF782F810B95020FFF73DFA4F
:101EB0000020FFF77BF8B8B90120FFF777F8012879
:101EC00012D10220FFF772F801280DD10320FFF78D
:101ED0006DF8012808D10420FFF768F8012803D124
:101EE00064215020FFF72EFA0020FFF75FF8012849
:101EF00015D1FFF75BF890B90220FFF757F80128DA
:101F00000DD10320FFF752F8012808D10420FFF774
:101F10004DF8012803D164215020FFF713FA002067
:101F2000FFF744F8012814D1FFF740F8012810D139
:101F30000220FFF73BF860B90320FFF737F80128CC
:101F400007D10420FFF732F8012802D15020FFF713
:101F5000ECF90020FFF72AF8012815D1FFF726F841
:101F6000012811D10220FFF721F801280CD103200C
:101F7000FFF71CF840B90420FFF718F8012803D137
:101F800050216420FFF7DEF90020FFF70FF8012849
:101F900015D1FFF70BF8012811D10220FFF706F841
:101FA00001280CD10320FFF701F8012807D10420F4
:101FB000FEF7FCFF18B950216420FFF7C3F9002099
:101FC000FEF7F4FFB0B90120FEF7F0FF90B9022050
:101FD000FEF7ECFF01280DD10320FEF7E7FF0128F3
:101FE00008D10420FEF7E2FF012803D1642150202C
:101FF000FFF7A8F90020FEF7D9FF012814D1FEF75A
:10200000D5FF88B90220FEF7D1FF68B90320FEF79B
:10201000CDFF012808D10420FEF7C8FF012803D115
:1020200064215020FFF78EF90020FEF7BFFF012842
:1020300014D1FEF7BBFF012810D10220FEF7B6FF36
:1020400060B90320FEF7B2FF40B90420FEF7AEFFEF
:10205000012803D150216420FFF774F90020FEF716
:10206000A5FF012814D1FEF7A1FF012810D10220FD
:10207000FEF79CFF01280BD10320FEF797FF38B92C
:102080000420FEF793FF18B950216420FFF75AF996
:102090000020FEF78BFF012814D1FEF787FF0128EF
:1020A00010D10220FEF782FF01280BD10320FEF79A
:1020B0007DFF38B90420FEF779FF18B9642150205C
:1020C000FFF740F90020FEF771FF012812D1FEF75B
:1020D0006DFF78B90220FEF769FF58B90320FEF7BB
:1020E00065FF38B90420FEF761FF012802D15020B6
:1020F000FFF71BF90020FEF759FF012813D1FEF767
:1021000055FF01280FD10220FEF750FF58B90320D8
:10211000FEF74CFF38B90420FEF748FF18B95021EC
:102120006420FFF70FF90020FEF740FF012813D1CC
:10213000FEF73CFF01280FD10220FEF737FF58B908
:102140000320FEF733FF38B90420FEF72FFF18B93C
:1021500064215020FFF7F6F80020FEF727FF012842
:1021600013D1FEF723FF01280FD10220FEF71EFF37
:1021700058B90320FEF71AFF38B90420FEF716FFFE
:1021800018B950216420FFF7DDF800BF5EE60000BB
:102190001800002001490870704700001800002056
:1021A000014800787047000000000020016841F0FD
:1021B000800101607047000010B531B101293FD0A6
:1021C00002297DD003297CD1BFE0036A23F00103FB
:1021D0000362836923F003038361036A1488234342
:1021E0000362036A23F002030362036A94882343B1
:1021F00003626A4B984202D0694B98421FD1036A2E
:1022000023F004030362036A548823430362036ACE
:1022100023F008030362036AD488234303624368FC
:1022200023F4807343604368148923434360436805
:1022300023F4007343604368548923434360ABE055
:10224000036A23F010030362836923F440738361FC
:10225000036A148843EA04130362036A23F0200329
:102260000362036A948843EA041303624B4B984267
:1022700002D04B4B984226D1036A23F040030362FD
:10228000036A548843EA04130362036A23F0800359
:102290000362036AD48843EA04130362436823F4A5
:1022A000806343604368148943EA8403436043685E
:1022B00023F4006343604368548943EA840301E0E4
:1022C00002E068E0436067E0036A23F4807303621E
:1022D000C36923F00303C361036A148843EA042338
:1022E0000362036A23F400730362036A948843EA77
:1022F00004230362294B984202D0294B984223D1F0
:10230000036A23F480630362036A548843EA042364
:102310000362036A23F400630362036AD48843EA16
:1023200004230362436823F48053436043681489A1
:1023300043EA04134360436823F400534360436853
:10234000548943EA0413436026E0036A23F480536C
:102350000362C36923F44073C361036A148843EAC8
:1023600004330362036A23F400530362036A94880C
:1023700043EA04330362094B984202D0084B984267
:1023800008D1436823F4804343604368148943EAD7
:102390008413436000E000BF00BF10BD0000014097
:1023A0000004014031B101290CD0022913D00329C6
:1023B00022D118E0836923F070038361836913439A
:1023C00083611AE0836923F4E0438361836943EA0C
:1023D0000223836111E0C36923F07003C361C36901
:1023E0001343C36109E0C36923F4E043C361C369D4
:1023F00043EA0223C36100E000BF00BF704731B170
:10240000012906D0022906D0032908D105E042633C
:1024100006E0826304E0C26302E0026400E000BF01
:1024200000BF704731B101290CD0022913D0032914
:1024300022D118E0836923F0080383618369134381
:1024400083611AE0836923F400638361836943EA4B
:102450000223836111E0C36923F00803C361C369E8
:102460001343C36109E0C36923F40063C361C36913
:1024700043EA0223C36100E000BF00BF70470021B0
:10248000018041808180C180018141817047016864
:1024900041F00101016070470A8882621D4A904242
:1024A0000ED0B0F1804F0BD01B4A904208D01B4A8F
:1024B000904205D01A4A904202D01A4A90420BD15B
:1024C000026822F07002026002684B881A430260C0
:1024D00002688B881A4302608A68C262124A90427C
:1024E0000AD0124A904207D0026822F44072026079
:1024F0000268CB881A430260064A904202D0094A19
:10250000904201D10A7B0263426942F001024261BA
:102510007047000000000140000400400008004037
:10252000000C004000040140001000400014004076
:1025300000210180418081804FF6FF718160002180
:10254000C1800173704700002DE9F04704460D4635
:102550000027B846B94600263349601A8C4235D068
:102560000CDC32482044E8B1B0F5806F1FD0B0F5E4
:10257000006F21D0B0F5406F32D122E0B0F5806F0E
:1025800029D0B0F5184F03D0B0F51C4F28D104E086
:102590000320FFF7F7FA074623E00320FFF7F2FADC
:1025A00007461EE00220FFF7EDFA074619E0022079
:1025B000FFF7E8FA074614E00220FFF7E3FA0746C0
:1025C0000FE00220FFF7DEFA07460AE00220FFF7DD
:1025D000D9FA074605E00220FFF7D4FA074600E0E3
:1025E00000BF00BFE06800F4004070B1780000EB6D
:1025F0005500B0FBF5F64FF6F07006EA0008C6F39A
:10260000420948EA0900A0600CE007EB5500B0FB66
:10261000F5F64FF6F07006EA000806F00F0948EAF2
:102620000900A060BDE8F0870078004000BCFFBF53
:1026300001464868C0F308007047C1F308024260D1
:102640007047426922F040024261426901F0400352
:102650001A4342617047C16841F40051C16070473C
:1026600010B500EB9112126801F01F040123A34082
:102670009A4300EB91131A6010BD10B5024602EBAD
:102680009110006801F01F040123A340184008B115
:10269000012010BD0020FCE710B500EB911212687C
:1026A00001F01F040123A3401A4300EB91131A60A9
:1026B00010BD10B500EB91521268C1F30444012320
:1026C000A3409A4300EB91531A6010BD70B50246C7
:1026D00000230024C1F38910105801F01F060125C2
:1026E000B54000EA050302EB91500068C1F30446CF
:1026F0000125B54000EA050414B10BB1012070BDFD
:102700000020FCE7C26822F4C062C260C2680A43CB
:10271000C26070470A460021C16821F004011143DC
:10272000C1607047026922F44052026102690A43A3
:10273000026170470A460021C16821F00801114377
:10274000C1607047C26822F48052C260C2680A4306
:10275000C2607047DDDDDDDDDCBBBBDDDDDDDDDD89
:10276000DDDDDDDD988888888888888877777777C9
:102770007788888885555556666666666666666695
:102780006668888883333332222222222222222240
:102790002228888DB42700080000002028000000AF
:1027A000CC0A0008DC27000828000020F8070000F9
:1027B000DC0A0008000000000010014000000000DA
:1027C0000101010101000000000000000000000004
:0C27D000001C4E0E000000000000000085
:04000005080001AD41
:00000001FF
